{
  "_format": "hh-sol-artifact-1",
  "contractName": "CrowdFundingV2",
  "sourceName": "contracts/CrowdFundingV2.sol",
  "abi": [
    {
      "inputs": [
        {
          "internalType": "uint256",
          "name": "",
          "type": "uint256"
        }
      ],
      "name": "campaigns",
      "outputs": [
        {
          "internalType": "address",
          "name": "owner",
          "type": "address"
        },
        {
          "internalType": "string",
          "name": "title",
          "type": "string"
        },
        {
          "internalType": "string",
          "name": "description",
          "type": "string"
        },
        {
          "internalType": "string",
          "name": "category",
          "type": "string"
        },
        {
          "internalType": "uint256",
          "name": "target",
          "type": "uint256"
        },
        {
          "internalType": "uint256",
          "name": "deadline",
          "type": "uint256"
        },
        {
          "internalType": "uint256",
          "name": "amountCollected",
          "type": "uint256"
        },
        {
          "internalType": "string",
          "name": "image",
          "type": "string"
        },
        {
          "internalType": "uint256",
          "name": "campaignId",
          "type": "uint256"
        }
      ],
      "stateMutability": "view",
      "type": "function"
    },
    {
      "inputs": [
        {
          "internalType": "address",
          "name": "_owner",
          "type": "address"
        },
        {
          "internalType": "string",
          "name": "_title",
          "type": "string"
        },
        {
          "internalType": "string",
          "name": "_description",
          "type": "string"
        },
        {
          "internalType": "string",
          "name": "_category",
          "type": "string"
        },
        {
          "internalType": "uint256",
          "name": "_target",
          "type": "uint256"
        },
        {
          "internalType": "uint256",
          "name": "_deadline",
          "type": "uint256"
        },
        {
          "internalType": "string",
          "name": "_image",
          "type": "string"
        }
      ],
      "name": "createCampaign",
      "outputs": [
        {
          "internalType": "uint256",
          "name": "",
          "type": "uint256"
        }
      ],
      "stateMutability": "nonpayable",
      "type": "function"
    },
    {
      "inputs": [
        {
          "internalType": "uint256",
          "name": "_id",
          "type": "uint256"
        }
      ],
      "name": "donateToCampaign",
      "outputs": [],
      "stateMutability": "payable",
      "type": "function"
    },
    {
      "inputs": [
        {
          "internalType": "uint256",
          "name": "_id",
          "type": "uint256"
        }
      ],
      "name": "getCampaign",
      "outputs": [
        {
          "internalType": "address",
          "name": "",
          "type": "address"
        },
        {
          "internalType": "string",
          "name": "",
          "type": "string"
        },
        {
          "internalType": "string",
          "name": "",
          "type": "string"
        },
        {
          "internalType": "string",
          "name": "",
          "type": "string"
        },
        {
          "internalType": "uint256",
          "name": "",
          "type": "uint256"
        },
        {
          "internalType": "uint256",
          "name": "",
          "type": "uint256"
        },
        {
          "internalType": "uint256",
          "name": "",
          "type": "uint256"
        },
        {
          "internalType": "string",
          "name": "",
          "type": "string"
        },
        {
          "internalType": "address[]",
          "name": "",
          "type": "address[]"
        },
        {
          "internalType": "uint256[]",
          "name": "",
          "type": "uint256[]"
        }
      ],
      "stateMutability": "view",
      "type": "function"
    },
    {
      "inputs": [],
      "name": "getCampaigns",
      "outputs": [
        {
          "components": [
            {
              "internalType": "address",
              "name": "owner",
              "type": "address"
            },
            {
              "internalType": "string",
              "name": "title",
              "type": "string"
            },
            {
              "internalType": "string",
              "name": "description",
              "type": "string"
            },
            {
              "internalType": "string",
              "name": "category",
              "type": "string"
            },
            {
              "internalType": "uint256",
              "name": "target",
              "type": "uint256"
            },
            {
              "internalType": "uint256",
              "name": "deadline",
              "type": "uint256"
            },
            {
              "internalType": "uint256",
              "name": "amountCollected",
              "type": "uint256"
            },
            {
              "internalType": "string",
              "name": "image",
              "type": "string"
            },
            {
              "internalType": "address[]",
              "name": "donators",
              "type": "address[]"
            },
            {
              "internalType": "uint256[]",
              "name": "donations",
              "type": "uint256[]"
            },
            {
              "internalType": "uint256",
              "name": "campaignId",
              "type": "uint256"
            }
          ],
          "internalType": "struct CrowdFundingV2.Campaign[]",
          "name": "",
          "type": "tuple[]"
        }
      ],
      "stateMutability": "view",
      "type": "function"
    },
    {
      "inputs": [],
      "name": "getNumberOfCampaigns",
      "outputs": [
        {
          "internalType": "uint256",
          "name": "",
          "type": "uint256"
        }
      ],
      "stateMutability": "view",
      "type": "function"
    },
    {
      "inputs": [],
      "name": "numberOfCampaigns",
      "outputs": [
        {
          "internalType": "uint256",
          "name": "",
          "type": "uint256"
        }
      ],
      "stateMutability": "view",
      "type": "function"
    }
  ],
  "bytecode": "0x608060405234801561001057600080fd5b50611e5a806100206000396000f3fe6080604052600436106100705760003560e01c80635598f8cc1161004e5780635598f8cc146101015780637660be5d14610147578063a6b0363314610184578063e4aafc2c146101af57610070565b806307ca140d14610075578063141961bc146100a057806342a4fda8146100e5575b600080fd5b34801561008157600080fd5b5061008a6101da565b6040516100979190610fb1565b60405180910390f35b3480156100ac57600080fd5b506100c760048036038101906100c2919061100c565b6101e0565b6040516100dc9998979695949392919061110a565b60405180910390f35b6100ff60048036038101906100fa919061100c565b61046e565b005b34801561010d57600080fd5b506101286004803603810190610123919061100c565b6105ce565b60405161013e9a9998979695949392919061132f565b60405180910390f35b34801561015357600080fd5b5061016e60048036038101906101699190611556565b61096d565b60405161017b9190610fb1565b60405180910390f35b34801561019057600080fd5b50610199610ab2565b6040516101a69190611964565b60405180910390f35b3480156101bb57600080fd5b506101c4610f1e565b6040516101d19190610fb1565b60405180910390f35b60015481565b60006020528060005260406000206000915090508060000160009054906101000a900473ffffffffffffffffffffffffffffffffffffffff1690806001018054610229906119b5565b80601f0160208091040260200160405190810160405280929190818152602001828054610255906119b5565b80156102a25780601f10610277576101008083540402835291602001916102a2565b820191906000526020600020905b81548152906001019060200180831161028557829003601f168201915b5050505050908060020180546102b7906119b5565b80601f01602080910402602001604051908101604052809291908181526020018280546102e3906119b5565b80156103305780601f1061030557610100808354040283529160200191610330565b820191906000526020600020905b81548152906001019060200180831161031357829003601f168201915b505050505090806003018054610345906119b5565b80601f0160208091040260200160405190810160405280929190818152602001828054610371906119b5565b80156103be5780601f10610393576101008083540402835291602001916103be565b820191906000526020600020905b8154815290600101906020018083116103a157829003601f168201915b5050505050908060040154908060050154908060060154908060070180546103e5906119b5565b80601f0160208091040260200160405190810160405280929190818152602001828054610411906119b5565b801561045e5780601f106104335761010080835404028352916020019161045e565b820191906000526020600020905b81548152906001019060200180831161044157829003601f168201915b50505050509080600a0154905089565b60003490506000806000848152602001908152602001600020905080600801339080600181540180825580915050600190039060005260206000200160009091909190916101000a81548173ffffffffffffffffffffffffffffffffffffffff021916908373ffffffffffffffffffffffffffffffffffffffff1602179055508060090182908060018154018082558091505060019003906000526020600020016000909190919091505560008160000160009054906101000a900473ffffffffffffffffffffffffffffffffffffffff1673ffffffffffffffffffffffffffffffffffffffff168360405161056390611a17565b60006040518083038185875af1925050503d80600081146105a0576040519150601f19603f3d011682016040523d82523d6000602084013e6105a5565b606091505b5050905080156105c8578282600601546105bf9190611a5b565b82600601819055505b50505050565b600060608060606000806000606080606060008060008d815260200190815260200160002090508060000160009054906101000a900473ffffffffffffffffffffffffffffffffffffffff1681600101826002018360030184600401548560050154866006015487600701886008018960090188805461064d906119b5565b80601f0160208091040260200160405190810160405280929190818152602001828054610679906119b5565b80156106c65780601f1061069b576101008083540402835291602001916106c6565b820191906000526020600020905b8154815290600101906020018083116106a957829003601f168201915b505050505098508780546106d9906119b5565b80601f0160208091040260200160405190810160405280929190818152602001828054610705906119b5565b80156107525780601f1061072757610100808354040283529160200191610752565b820191906000526020600020905b81548152906001019060200180831161073557829003601f168201915b50505050509750868054610765906119b5565b80601f0160208091040260200160405190810160405280929190818152602001828054610791906119b5565b80156107de5780601f106107b3576101008083540402835291602001916107de565b820191906000526020600020905b8154815290600101906020018083116107c157829003601f168201915b505050505096508280546107f1906119b5565b80601f016020809104026020016040519081016040528092919081815260200182805461081d906119b5565b801561086a5780601f1061083f5761010080835404028352916020019161086a565b820191906000526020600020905b81548152906001019060200180831161084d57829003601f168201915b50505050509250818054806020026020016040519081016040528092919081815260200182805480156108f257602002820191906000526020600020905b8160009054906101000a900473ffffffffffffffffffffffffffffffffffffffff1673ffffffffffffffffffffffffffffffffffffffff16815260200190600101908083116108a8575b505050505091508080548060200260200160405190810160405280929190818152602001828054801561094457602002820191906000526020600020905b815481526020019060010190808311610930575b505050505090509a509a509a509a509a509a509a509a509a509a50509193959799509193959799565b60008060008060015481526020019081526020016000209050428160050154106109cc576040517f08c379a00000000000000000000000000000000000000000000000000000000081526004016109c390611adb565b60405180910390fd5b888160000160006101000a81548173ffffffffffffffffffffffffffffffffffffffff021916908373ffffffffffffffffffffffffffffffffffffffff16021790555087816001019081610a209190611ca7565b5086816002019081610a329190611ca7565b5085816003019081610a449190611ca7565b508481600401819055508381600501819055506000816006018190555082816007019081610a729190611ca7565b5060015481600a018190555060016000815480929190610a9190611d79565b919050555060018054610aa49190611dc1565b915050979650505050505050565b6060600060015467ffffffffffffffff811115610ad257610ad161142b565b5b604051908082528060200260200182016040528015610b0b57816020015b610af8610f28565b815260200190600190039081610af05790505b50905060005b600154811015610f1657600080828152602001908152602001600020604051806101600160405290816000820160009054906101000a900473ffffffffffffffffffffffffffffffffffffffff1673ffffffffffffffffffffffffffffffffffffffff1673ffffffffffffffffffffffffffffffffffffffff168152602001600182018054610b9f906119b5565b80601f0160208091040260200160405190810160405280929190818152602001828054610bcb906119b5565b8015610c185780601f10610bed57610100808354040283529160200191610c18565b820191906000526020600020905b815481529060010190602001808311610bfb57829003601f168201915b50505050508152602001600282018054610c31906119b5565b80601f0160208091040260200160405190810160405280929190818152602001828054610c5d906119b5565b8015610caa5780601f10610c7f57610100808354040283529160200191610caa565b820191906000526020600020905b815481529060010190602001808311610c8d57829003601f168201915b50505050508152602001600382018054610cc3906119b5565b80601f0160208091040260200160405190810160405280929190818152602001828054610cef906119b5565b8015610d3c5780601f10610d1157610100808354040283529160200191610d3c565b820191906000526020600020905b815481529060010190602001808311610d1f57829003601f168201915b50505050508152602001600482015481526020016005820154815260200160068201548152602001600782018054610d73906119b5565b80601f0160208091040260200160405190810160405280929190818152602001828054610d9f906119b5565b8015610dec5780601f10610dc157610100808354040283529160200191610dec565b820191906000526020600020905b815481529060010190602001808311610dcf57829003601f168201915b5050505050815260200160088201805480602002602001604051908101604052809291908181526020018280548015610e7a57602002820191906000526020600020905b8160009054906101000a900473ffffffffffffffffffffffffffffffffffffffff1673ffffffffffffffffffffffffffffffffffffffff1681526020019060010190808311610e30575b5050505050815260200160098201805480602002602001604051908101604052809291908181526020018280548015610ed257602002820191906000526020600020905b815481526020019060010190808311610ebe575b50505050508152602001600a82015481525050828281518110610ef857610ef7611df5565b5b60200260200101819052508080610f0e90611d79565b915050610b11565b508091505090565b6000600154905090565b604051806101600160405280600073ffffffffffffffffffffffffffffffffffffffff168152602001606081526020016060815260200160608152602001600081526020016000815260200160008152602001606081526020016060815260200160608152602001600081525090565b6000819050919050565b610fab81610f98565b82525050565b6000602082019050610fc66000830184610fa2565b92915050565b6000604051905090565b600080fd5b600080fd5b610fe981610f98565b8114610ff457600080fd5b50565b60008135905061100681610fe0565b92915050565b60006020828403121561102257611021610fd6565b5b600061103084828501610ff7565b91505092915050565b600073ffffffffffffffffffffffffffffffffffffffff82169050919050565b600061106482611039565b9050919050565b61107481611059565b82525050565b600081519050919050565b600082825260208201905092915050565b60005b838110156110b4578082015181840152602081019050611099565b60008484015250505050565b6000601f19601f8301169050919050565b60006110dc8261107a565b6110e68185611085565b93506110f6818560208601611096565b6110ff816110c0565b840191505092915050565b600061012082019050611120600083018c61106b565b8181036020830152611132818b6110d1565b90508181036040830152611146818a6110d1565b9050818103606083015261115a81896110d1565b90506111696080830188610fa2565b61117660a0830187610fa2565b61118360c0830186610fa2565b81810360e083015261119581856110d1565b90506111a5610100830184610fa2565b9a9950505050505050505050565b600081519050919050565b600082825260208201905092915050565b6000819050602082019050919050565b6111e881611059565b82525050565b60006111fa83836111df565b60208301905092915050565b6000602082019050919050565b600061121e826111b3565b61122881856111be565b9350611233836111cf565b8060005b8381101561126457815161124b88826111ee565b975061125683611206565b925050600181019050611237565b5085935050505092915050565b600081519050919050565b600082825260208201905092915050565b6000819050602082019050919050565b6112a681610f98565b82525050565b60006112b8838361129d565b60208301905092915050565b6000602082019050919050565b60006112dc82611271565b6112e6818561127c565b93506112f18361128d565b8060005b8381101561132257815161130988826112ac565b9750611314836112c4565b9250506001810190506112f5565b5085935050505092915050565b600061014082019050611345600083018d61106b565b8181036020830152611357818c6110d1565b9050818103604083015261136b818b6110d1565b9050818103606083015261137f818a6110d1565b905061138e6080830189610fa2565b61139b60a0830188610fa2565b6113a860c0830187610fa2565b81810360e08301526113ba81866110d1565b90508181036101008301526113cf8185611213565b90508181036101208301526113e481846112d1565b90509b9a5050505050505050505050565b6113fe81611059565b811461140957600080fd5b50565b60008135905061141b816113f5565b92915050565b600080fd5b600080fd5b7f4e487b7100000000000000000000000000000000000000000000000000000000600052604160045260246000fd5b611463826110c0565b810181811067ffffffffffffffff821117156114825761148161142b565b5b80604052505050565b6000611495610fcc565b90506114a1828261145a565b919050565b600067ffffffffffffffff8211156114c1576114c061142b565b5b6114ca826110c0565b9050602081019050919050565b82818337600083830152505050565b60006114f96114f4846114a6565b61148b565b90508281526020810184848401111561151557611514611426565b5b6115208482856114d7565b509392505050565b600082601f83011261153d5761153c611421565b5b813561154d8482602086016114e6565b91505092915050565b600080600080600080600060e0888a03121561157557611574610fd6565b5b60006115838a828b0161140c565b975050602088013567ffffffffffffffff8111156115a4576115a3610fdb565b5b6115b08a828b01611528565b965050604088013567ffffffffffffffff8111156115d1576115d0610fdb565b5b6115dd8a828b01611528565b955050606088013567ffffffffffffffff8111156115fe576115fd610fdb565b5b61160a8a828b01611528565b945050608061161b8a828b01610ff7565b93505060a061162c8a828b01610ff7565b92505060c088013567ffffffffffffffff81111561164d5761164c610fdb565b5b6116598a828b01611528565b91505092959891949750929550565b600081519050919050565b600082825260208201905092915050565b6000819050602082019050919050565b600082825260208201905092915050565b60006116b08261107a565b6116ba8185611694565b93506116ca818560208601611096565b6116d3816110c0565b840191505092915050565b600082825260208201905092915050565b60006116fa826111b3565b61170481856116de565b935061170f836111cf565b8060005b8381101561174057815161172788826111ee565b975061173283611206565b925050600181019050611713565b5085935050505092915050565b600082825260208201905092915050565b600061176982611271565b611773818561174d565b935061177e8361128d565b8060005b838110156117af57815161179688826112ac565b97506117a1836112c4565b925050600181019050611782565b5085935050505092915050565b6000610160830160008301516117d560008601826111df565b50602083015184820360208601526117ed82826116a5565b9150506040830151848203604086015261180782826116a5565b9150506060830151848203606086015261182182826116a5565b9150506080830151611836608086018261129d565b5060a083015161184960a086018261129d565b5060c083015161185c60c086018261129d565b5060e083015184820360e086015261187482826116a5565b91505061010083015184820361010086015261189082826116ef565b9150506101208301518482036101208601526118ac828261175e565b9150506101408301516118c361014086018261129d565b508091505092915050565b60006118da83836117bc565b905092915050565b6000602082019050919050565b60006118fa82611668565b6119048185611673565b93508360208202850161191685611684565b8060005b85811015611952578484038952815161193385826118ce565b945061193e836118e2565b925060208a0199505060018101905061191a565b50829750879550505050505092915050565b6000602082019050818103600083015261197e81846118ef565b905092915050565b7f4e487b7100000000000000000000000000000000000000000000000000000000600052602260045260246000fd5b600060028204905060018216806119cd57607f821691505b6020821081036119e0576119df611986565b5b50919050565b600081905092915050565b50565b6000611a016000836119e6565b9150611a0c826119f1565b600082019050919050565b6000611a22826119f4565b9150819050919050565b7f4e487b7100000000000000000000000000000000000000000000000000000000600052601160045260246000fd5b6000611a6682610f98565b9150611a7183610f98565b9250828201905080821115611a8957611a88611a2c565b5b92915050565b7f446561646c696e65206d75737420626520696e20746865206675747572650000600082015250565b6000611ac5601e83611085565b9150611ad082611a8f565b602082019050919050565b60006020820190508181036000830152611af481611ab8565b9050919050565b60008190508160005260206000209050919050565b60006020601f8301049050919050565b600082821b905092915050565b600060088302611b5d7fffffffffffffffffffffffffffffffffffffffffffffffffffffffffffffffff82611b20565b611b678683611b20565b95508019841693508086168417925050509392505050565b6000819050919050565b6000611ba4611b9f611b9a84610f98565b611b7f565b610f98565b9050919050565b6000819050919050565b611bbe83611b89565b611bd2611bca82611bab565b848454611b2d565b825550505050565b600090565b611be7611bda565b611bf2818484611bb5565b505050565b5b81811015611c1657611c0b600082611bdf565b600181019050611bf8565b5050565b601f821115611c5b57611c2c81611afb565b611c3584611b10565b81016020851015611c44578190505b611c58611c5085611b10565b830182611bf7565b50505b505050565b600082821c905092915050565b6000611c7e60001984600802611c60565b1980831691505092915050565b6000611c978383611c6d565b9150826002028217905092915050565b611cb08261107a565b67ffffffffffffffff811115611cc957611cc861142b565b5b611cd382546119b5565b611cde828285611c1a565b600060209050601f831160018114611d115760008415611cff578287015190505b611d098582611c8b565b865550611d71565b601f198416611d1f86611afb565b60005b82811015611d4757848901518255600182019150602085019450602081019050611d22565b86831015611d645784890151611d60601f891682611c6d565b8355505b6001600288020188555050505b505050505050565b6000611d8482610f98565b91507fffffffffffffffffffffffffffffffffffffffffffffffffffffffffffffffff8203611db657611db5611a2c565b5b600182019050919050565b6000611dcc82610f98565b9150611dd783610f98565b9250828203905081811115611def57611dee611a2c565b5b92915050565b7f4e487b7100000000000000000000000000000000000000000000000000000000600052603260045260246000fdfea264697066735822122088d1a00d47174692ae2f57036552fbf022fd8a01643f94c9e61db0859d26410c64736f6c63430008120033",
  "linkReferences": {},
  "deployedLinkReferences": {}
}