{
  "_format": "hh-sol-artifact-1",
  "contractName": "LogicV2",
  "sourceName": "contracts/LogicV2.sol",
  "abi": [
    {
      "anonymous": false,
      "inputs": [
        {
          "indexed": false,
          "internalType": "uint8",
          "name": "version",
          "type": "uint8"
        }
      ],
      "name": "Initialized",
      "type": "event"
    },
    {
      "anonymous": false,
      "inputs": [
        {
          "indexed": true,
          "internalType": "address",
          "name": "previousOwner",
          "type": "address"
        },
        {
          "indexed": true,
          "internalType": "address",
          "name": "newOwner",
          "type": "address"
        }
      ],
      "name": "OwnershipTransferred",
      "type": "event"
    },
    {
      "inputs": [
        {
          "internalType": "uint256",
          "name": "_value",
          "type": "uint256"
        }
      ],
      "name": "add",
      "outputs": [],
      "stateMutability": "nonpayable",
      "type": "function"
    },
    {
      "inputs": [],
      "name": "count",
      "outputs": [
        {
          "internalType": "uint256",
          "name": "",
          "type": "uint256"
        }
      ],
      "stateMutability": "view",
      "type": "function"
    },
    {
      "inputs": [
        {
          "internalType": "uint256",
          "name": "_value",
          "type": "uint256"
        }
      ],
      "name": "mul",
      "outputs": [],
      "stateMutability": "nonpayable",
      "type": "function"
    },
    {
      "inputs": [],
      "name": "owner",
      "outputs": [
        {
          "internalType": "address",
          "name": "",
          "type": "address"
        }
      ],
      "stateMutability": "view",
      "type": "function"
    },
    {
      "inputs": [],
      "name": "renounceOwnership",
      "outputs": [],
      "stateMutability": "nonpayable",
      "type": "function"
    },
    {
      "inputs": [
        {
          "internalType": "uint256",
          "name": "_value",
          "type": "uint256"
        }
      ],
      "name": "sub",
      "outputs": [],
      "stateMutability": "nonpayable",
      "type": "function"
    },
    {
      "inputs": [
        {
          "internalType": "address",
          "name": "newOwner",
          "type": "address"
        }
      ],
      "name": "transferOwnership",
      "outputs": [],
      "stateMutability": "nonpayable",
      "type": "function"
    }
  ],
  "bytecode": "0x608060405234801561001057600080fd5b50610704806100206000396000f3fe608060405234801561001057600080fd5b506004361061007d5760003560e01c806327ee58a61161005b57806327ee58a6146100d8578063715018a6146100f45780638da5cb5b146100fe578063f2fde38b1461011c5761007d565b806306661abd146100825780631003e2d2146100a0578063131e2f18146100bc575b600080fd5b61008a610138565b60405161009791906103b8565b60405180910390f35b6100ba60048036038101906100b59190610404565b61013e565b005b6100d660048036038101906100d19190610404565b61015a565b005b6100f260048036038101906100ed9190610404565b610176565b005b6100fc610192565b005b6101066101a6565b6040516101139190610472565b60405180910390f35b610136600480360381019061013191906104b9565b6101d0565b005b60655481565b80606560008282546101509190610515565b9250508190555050565b806065600082825461016c9190610549565b9250508190555050565b8060656000828254610188919061058b565b9250508190555050565b61019a610253565b6101a460006102d1565b565b6000603360009054906101000a900473ffffffffffffffffffffffffffffffffffffffff16905090565b6101d8610253565b600073ffffffffffffffffffffffffffffffffffffffff168173ffffffffffffffffffffffffffffffffffffffff1603610247576040517f08c379a000000000000000000000000000000000000000000000000000000000815260040161023e90610642565b60405180910390fd5b610250816102d1565b50565b61025b610397565b73ffffffffffffffffffffffffffffffffffffffff166102796101a6565b73ffffffffffffffffffffffffffffffffffffffff16146102cf576040517f08c379a00000000000000000000000000000000000000000000000000000000081526004016102c6906106ae565b60405180910390fd5b565b6000603360009054906101000a900473ffffffffffffffffffffffffffffffffffffffff16905081603360006101000a81548173ffffffffffffffffffffffffffffffffffffffff021916908373ffffffffffffffffffffffffffffffffffffffff1602179055508173ffffffffffffffffffffffffffffffffffffffff168173ffffffffffffffffffffffffffffffffffffffff167f8be0079c531659141344cd1fd0a4f28419497f9722a3daafe3b4186f6b6457e060405160405180910390a35050565b600033905090565b6000819050919050565b6103b28161039f565b82525050565b60006020820190506103cd60008301846103a9565b92915050565b600080fd5b6103e18161039f565b81146103ec57600080fd5b50565b6000813590506103fe816103d8565b92915050565b60006020828403121561041a576104196103d3565b5b6000610428848285016103ef565b91505092915050565b600073ffffffffffffffffffffffffffffffffffffffff82169050919050565b600061045c82610431565b9050919050565b61046c81610451565b82525050565b60006020820190506104876000830184610463565b92915050565b61049681610451565b81146104a157600080fd5b50565b6000813590506104b38161048d565b92915050565b6000602082840312156104cf576104ce6103d3565b5b60006104dd848285016104a4565b91505092915050565b7f4e487b7100000000000000000000000000000000000000000000000000000000600052601160045260246000fd5b60006105208261039f565b915061052b8361039f565b9250828201905080821115610543576105426104e6565b5b92915050565b60006105548261039f565b915061055f8361039f565b925082820261056d8161039f565b91508282048414831517610584576105836104e6565b5b5092915050565b60006105968261039f565b91506105a18361039f565b92508282039050818111156105b9576105b86104e6565b5b92915050565b600082825260208201905092915050565b7f4f776e61626c653a206e6577206f776e657220697320746865207a65726f206160008201527f6464726573730000000000000000000000000000000000000000000000000000602082015250565b600061062c6026836105bf565b9150610637826105d0565b604082019050919050565b6000602082019050818103600083015261065b8161061f565b9050919050565b7f4f776e61626c653a2063616c6c6572206973206e6f7420746865206f776e6572600082015250565b60006106986020836105bf565b91506106a382610662565b602082019050919050565b600060208201905081810360008301526106c78161068b565b905091905056fea2646970667358221220a696d64efb7fcb1dbf1454f8c10bc0a6ae3b0866db2979d86475a8999517b8be64736f6c63430008120033",
  "linkReferences": {},
  "deployedLinkReferences": {}
}