{
  "_format": "hh-sol-artifact-1",
  "contractName": "Logic",
  "sourceName": "contracts/Logic.sol",
  "abi": [
    {
      "anonymous": false,
      "inputs": [
        {
          "indexed": false,
          "internalType": "uint8",
          "name": "version",
          "type": "uint8"
        }
      ],
      "name": "Initialized",
      "type": "event"
    },
    {
      "anonymous": false,
      "inputs": [
        {
          "indexed": true,
          "internalType": "address",
          "name": "previousOwner",
          "type": "address"
        },
        {
          "indexed": true,
          "internalType": "address",
          "name": "newOwner",
          "type": "address"
        }
      ],
      "name": "OwnershipTransferred",
      "type": "event"
    },
    {
      "inputs": [
        {
          "internalType": "uint256",
          "name": "_value",
          "type": "uint256"
        }
      ],
      "name": "add",
      "outputs": [],
      "stateMutability": "nonpayable",
      "type": "function"
    },
    {
      "inputs": [],
      "name": "count",
      "outputs": [
        {
          "internalType": "uint256",
          "name": "",
          "type": "uint256"
        }
      ],
      "stateMutability": "view",
      "type": "function"
    },
    {
      "inputs": [
        {
          "internalType": "uint256",
          "name": "_count",
          "type": "uint256"
        }
      ],
      "name": "initialize",
      "outputs": [],
      "stateMutability": "nonpayable",
      "type": "function"
    },
    {
      "inputs": [],
      "name": "owner",
      "outputs": [
        {
          "internalType": "address",
          "name": "",
          "type": "address"
        }
      ],
      "stateMutability": "view",
      "type": "function"
    },
    {
      "inputs": [],
      "name": "renounceOwnership",
      "outputs": [],
      "stateMutability": "nonpayable",
      "type": "function"
    },
    {
      "inputs": [
        {
          "internalType": "uint256",
          "name": "_value",
          "type": "uint256"
        }
      ],
      "name": "sub",
      "outputs": [],
      "stateMutability": "nonpayable",
      "type": "function"
    },
    {
      "inputs": [
        {
          "internalType": "address",
          "name": "newOwner",
          "type": "address"
        }
      ],
      "name": "transferOwnership",
      "outputs": [],
      "stateMutability": "nonpayable",
      "type": "function"
    }
  ],
  "bytecode": "0x608060405234801561001057600080fd5b50610a5a806100206000396000f3fe608060405234801561001057600080fd5b506004361061007d5760003560e01c8063715018a61161005b578063715018a6146100d85780638da5cb5b146100e2578063f2fde38b14610100578063fe4b84df1461011c5761007d565b806306661abd146100825780631003e2d2146100a057806327ee58a6146100bc575b600080fd5b61008a610138565b60405161009791906105bf565b60405180910390f35b6100ba60048036038101906100b5919061060b565b61013e565b005b6100d660048036038101906100d1919061060b565b61015a565b005b6100e0610176565b005b6100ea61018a565b6040516100f79190610679565b60405180910390f35b61011a600480360381019061011591906106c0565b6101b4565b005b6101366004803603810190610131919061060b565b610237565b005b60655481565b8060656000828254610150919061071c565b9250508190555050565b806065600082825461016c9190610750565b9250508190555050565b61017e61037d565b61018860006103fb565b565b6000603360009054906101000a900473ffffffffffffffffffffffffffffffffffffffff16905090565b6101bc61037d565b600073ffffffffffffffffffffffffffffffffffffffff168173ffffffffffffffffffffffffffffffffffffffff160361022b576040517f08c379a000000000000000000000000000000000000000000000000000000000815260040161022290610807565b60405180910390fd5b610234816103fb565b50565b60008060019054906101000a900460ff161590508080156102685750600160008054906101000a900460ff1660ff16105b806102955750610277306104c1565b1580156102945750600160008054906101000a900460ff1660ff16145b5b6102d4576040517f08c379a00000000000000000000000000000000000000000000000000000000081526004016102cb90610899565b60405180910390fd5b60016000806101000a81548160ff021916908360ff1602179055508015610311576001600060016101000a81548160ff0219169083151502179055505b816065819055506103206104e4565b80156103795760008060016101000a81548160ff0219169083151502179055507f7f26b83ff96e1f2b6a682f133852f6798a09c465da95921460cefb38474024986001604051610370919061090b565b60405180910390a15b5050565b61038561053d565b73ffffffffffffffffffffffffffffffffffffffff166103a361018a565b73ffffffffffffffffffffffffffffffffffffffff16146103f9576040517f08c379a00000000000000000000000000000000000000000000000000000000081526004016103f090610972565b60405180910390fd5b565b6000603360009054906101000a900473ffffffffffffffffffffffffffffffffffffffff16905081603360006101000a81548173ffffffffffffffffffffffffffffffffffffffff021916908373ffffffffffffffffffffffffffffffffffffffff1602179055508173ffffffffffffffffffffffffffffffffffffffff168173ffffffffffffffffffffffffffffffffffffffff167f8be0079c531659141344cd1fd0a4f28419497f9722a3daafe3b4186f6b6457e060405160405180910390a35050565b6000808273ffffffffffffffffffffffffffffffffffffffff163b119050919050565b600060019054906101000a900460ff16610533576040517f08c379a000000000000000000000000000000000000000000000000000000000815260040161052a90610a04565b60405180910390fd5b61053b610545565b565b600033905090565b600060019054906101000a900460ff16610594576040517f08c379a000000000000000000000000000000000000000000000000000000000815260040161058b90610a04565b60405180910390fd5b6105a461059f61053d565b6103fb565b565b6000819050919050565b6105b9816105a6565b82525050565b60006020820190506105d460008301846105b0565b92915050565b600080fd5b6105e8816105a6565b81146105f357600080fd5b50565b600081359050610605816105df565b92915050565b600060208284031215610621576106206105da565b5b600061062f848285016105f6565b91505092915050565b600073ffffffffffffffffffffffffffffffffffffffff82169050919050565b600061066382610638565b9050919050565b61067381610658565b82525050565b600060208201905061068e600083018461066a565b92915050565b61069d81610658565b81146106a857600080fd5b50565b6000813590506106ba81610694565b92915050565b6000602082840312156106d6576106d56105da565b5b60006106e4848285016106ab565b91505092915050565b7f4e487b7100000000000000000000000000000000000000000000000000000000600052601160045260246000fd5b6000610727826105a6565b9150610732836105a6565b925082820190508082111561074a576107496106ed565b5b92915050565b600061075b826105a6565b9150610766836105a6565b925082820390508181111561077e5761077d6106ed565b5b92915050565b600082825260208201905092915050565b7f4f776e61626c653a206e6577206f776e657220697320746865207a65726f206160008201527f6464726573730000000000000000000000000000000000000000000000000000602082015250565b60006107f1602683610784565b91506107fc82610795565b604082019050919050565b60006020820190508181036000830152610820816107e4565b9050919050565b7f496e697469616c697a61626c653a20636f6e747261637420697320616c72656160008201527f647920696e697469616c697a6564000000000000000000000000000000000000602082015250565b6000610883602e83610784565b915061088e82610827565b604082019050919050565b600060208201905081810360008301526108b281610876565b9050919050565b6000819050919050565b600060ff82169050919050565b6000819050919050565b60006108f56108f06108eb846108b9565b6108d0565b6108c3565b9050919050565b610905816108da565b82525050565b600060208201905061092060008301846108fc565b92915050565b7f4f776e61626c653a2063616c6c6572206973206e6f7420746865206f776e6572600082015250565b600061095c602083610784565b915061096782610926565b602082019050919050565b6000602082019050818103600083015261098b8161094f565b9050919050565b7f496e697469616c697a61626c653a20636f6e7472616374206973206e6f74206960008201527f6e697469616c697a696e67000000000000000000000000000000000000000000602082015250565b60006109ee602b83610784565b91506109f982610992565b604082019050919050565b60006020820190508181036000830152610a1d816109e1565b905091905056fea26469706673582212207dec2e7f1d6975886f2493f61df86600c58452158b756da8fbee554ee66c799c64736f6c63430008120033",
  "linkReferences": {},
  "deployedLinkReferences": {}
}